:10000000012883168701071487148501860188015A
:10001000831200308600870088000E2815282928C2
:10002000562842285628051C0E2807182420871C0D
:100030001528013086070608061A21287620802018
:1000400015280030860015280608A100762080209B
:10005000292807183628871C292810308607060803
:10006000762029282130860076202928061A221495
:10007000861AA214061B2215861BA2157620802044
:100080000814422807185328871C4228013088008A
:100090007620802007185328871C4A2802308800C1
:1000A0007620802042280808A0005628081C6828CE
:1000B0005A28080021082207B10031180716B11884
:1000C000871631190717B1198717762080208328E2
:1000D00022082102B10031180716B118871631190C
:1000E0000717B11987177620802083280130B507BC
:1000F0003508013035073508FF3A02180800762820
:0C0100000030B5000800871C832801288F
:02400E00723FFF
:00000001FF
