:1000000001288316870107148714850105148601CA
:100010008801831200308600870088000F28162888
:100020002828522840285228051C0F280718242861
:10003000871C1628013086070608061A212870201A
:1000400016280030860016280608A10070202828EF
:1000500007183528871C28281030860706087020C6
:1000600028282130860070202828061A2214861A93
:10007000A214061B2215861BA21570200814402806
:1000800007184F28871C4028013088007020071867
:100090004F28871C47280230880070204028080815
:1000A000A9005228081C63285628080021082207A6
:1000B000B10031180716B118871631190717B11991
:1000C00087177020712822082102B1003118071605
:1000D000B118871631190717B119871770207128C1
:0800E0000800871C71280128AB
:02400E00723FFF
:00000001FF
