:10000000012883168501870186018801890108146A
:1000100088140815881583123F3086000030870049
:1000200088000030BA00BB00FF30B100B200B3005E
:10003000B400B500B6000130A1000130A2002028B4
:10004000231C872808182D2088182E2008192F20F7
:10005000881930206C203120202808000800080072
:1000600008002208063A031987282208053A0319CE
:1000700020282208043A031920282208033A0319E9
:1000800020282208023A031920282208013A0319DD
:100090004A2808003108311CB110311431083208E7
:1000A000321CB210321432083308331CB31033142C
:1000B00033083408341CB410341434083508351CA3
:1000C000B510351435083608361CB6103614360807
:1000D0000230A200080008003108870001308600C5
:1000E000320887000230860033088700043086001B
:1000F00034088700083086003508870010308600F5
:100100003608870020308600003086000800FE3068
:10011000B100B2000130A3002028DE20DE20DE2066
:10012000DE20DE20DE20DE20DE20DE20DE20DE20DF
:10013000DE20DE20DE20DE20DE20DE20DE20DE20CF
:10014000DE20DE20DE20DE20DE20DE20DE20DE20BF
:10015000DE20DE20DE20DE20DE20DE20DE20DE20AF
:10016000DE20DE20DE20DE20DE20DE20DE20DE209F
:10017000DE20DE20DE20DE20DE20DE20DE20DE208F
:10018000DE20DE20DE20DE20DE20DE20DE20DE207F
:10019000DE20DE20DE20DE20DE20DE20DE20DE206F
:1001A000DE20DE20DE20DE20DE20DE20DE20DE205F
:1001B000DE20DE20DE20DE20DE200800FF30BC0056
:1001C000E520FF30BC00E52008006C20BC0BE528D2
:0201D000080025
:02400E00723FFF
:00000001FF
