:10000000012883168501870186018801890108146A
:100010008814081588158312003086008700880030
:100020000030BA00BB003F30B100B200B300B400F2
:10003000B500B6000130A1000130A2001F283E30FB
:100040008700013086003E308700023086000818A5
:100050007120881894200819B1208819B2201F280F
:1000600001308600310887003F308700023086006B
:10007000320887000030870004308600330887008C
:100080000030870008308600340887000030870081
:100090001030860035088700003087002030860049
:1000A00036088700003087000030870008000130E4
:1000B000A1000130A200A3003E30B100B200003028
:1000C000BA00BB001F282208063A0218702831180F
:1000D0003214B11AB214311B3215B11BB21508001B
:1000E00057282108013A02181F283108BA00E830C1
:1000F000BA073A080130A107B820B820F430BA078F
:100100003A080130A107B820B820FA30BA073A08F7
:100110000130A107B820B820FD30BA073A080130F5
:10012000A107B820B82008000330BA073A08FF300A
:10013000A107B820B8200630BA073A08FF30A10757
:10014000B820B8200C30BA073A08FF30A107B82011
:10015000B8201830BA073A08FF30A107B820B820F5
:10016000080008002008013A021C0800B820B62840
:10017000D0015017D01650153020BF200800D00BEA
:0C0180003020BF280800871CC32801287D
:02400E00723FFF
:00000001FF
